:020000040000FA
:060000008A01880191282D
:080008008A018801911C1A28ED
:1000100091104520432041203F2021008C172000D3
:10002000A30B0832A10803190032A2012008A30083
:1000300021008C132000111D023220001111090033
:1000400020005F30FF002030840085013A205030CE
:10005000FF00A03084003A20850A3120850A312033
:10006000850A5030FF00203084003A205030FF00D5
:10007000A03084008001840AFF0BFC3308002D307F
:1000800005322B3003322930013227308400003012
:100090008500130000040319080001308002840A5F
:1000A0000301803B080020002C082D0408002000DC
:1000B0002A082B0408002000280829040800200032
:1000C0002608270408000530033241300132193078
:1000D000F70000000000F70BFC330800A400240820
:1000E0002300910015139513151413082000080020
:1000F000A400240823009100200025082300930079
:100100001513951315158B138B1BFD335530960066
:10011000AA30960095149518FE3315118B17200000
:100120000800DE20D3206400200064302F180A303D
:10013000A0009B20932821001D1C35329D183C32C5
:10014000003085001D0820007C3903190C32F800AE
:1001500000307802031907320030F800A130840023
:10016000210020141332A130840021002014043017
:10017000F8000C320830F80009320C30F800063272
:100180000030F8000332A3308400F43321001B0850
:100190001A001C081A00780809149D000430682011
:1001A0009D14200008002100E0309E00003009145A
:1001B0009D00043068209D14200008002100951740
:1001C00095129511151495141515F03099001730E6
:1001D000970024008C16230003308C0000308D0023
:1001E00020004F309C007D309B00210091142000A6
:1001F00021309800991320206400200011308D00D8
:1002000000308C002100A7308C00DF308D006400AE
:1002100020006430A0000130A3006430AC00640012
:060220000B178B1708000C
:020000040001F9
:08000000010000000D000100E9
:02000E00A42F1D
:02001000FF1FD0
:00000001FF
