:020000040000FA
:060000008A018801A4281A
:080008008A018801911C2D28DA
:100010009110582056205420522021008C17200087
:10002000A30B0832A10803190032A2012008A30083
:1000300021008C132000AF1C2F11AF102F1D2F1289
:100040002F192F1603012F1A0914B01A09102200B4
:10005000091C0C1209180C1620002000111D023278
:1000600020001111090020005F30FF0020308400C3
:1000700085014D205030FF00A03084004D20850ABE
:100080004420850A4420850A5030FF002030840037
:100090004D205030FF00A03084008001840AFF0B07
:1000A000FC3308002D3005322B3003322930013269
:1000B0002730840000308500130000040319080075
:1000C00001308002840A0301803B080020002C08D4
:1000D0002D04080020002A082B040800200028080E
:1000E00029040800200026082704080005300332F0
:1000F000413001321930F70000000000F70BFC33EB
:100100000800A4002408230091001513951315146A
:10011000130820000800A4002408230091002000F8
:100120002508230093001513951315158B138B1BAE
:10013000FD3355309600AA30960095149518FE337D
:1001400015118B172000080066215B2120000D1C73
:100150002E148D1CAE140D1D2E152E080739F90016
:10016000F90A21002030A5070030A63DF90BFA332B
:100170002000B0166430A800640020008D1D0732F6
:10018000AF190932AF15AF182F15AF140432AF1DD8
:100190000232AF11F833B01E03326E200319B012D1
:1001A0002F1A0332B0166430A800301E03326E20BE
:1001B000031930122100803021020230223B20003E
:1001C0000318AF16031CAF12AF1A03323016643097
:1001D000A8002100A01C1C32250823022608243B6D
:1001E000200003183010031C301430181032301D5A
:1001F00008322808031D0C32B01430116430A800F6
:100200000732B018043230150530A8000132301121
:100210002000B01C03326E200319B0102F10AF1E47
:100220002F14301A2F142F1E2F14B01A2F14B01899
:100230002F142F1C043222000C138D1203322200C3
:100240000C178D162000200064302F180A30A000F3
:100250002A21BC2821001D1C2E329D183532003069
:1002600085001D0820007C3903190A32F80004308B
:10027000780203190C320030F800A13084000E32ED
:10028000A1308400210020140430F8000732A3308C
:1002900084002100A0140030F800003221001B0867
:1002A0001A001C081A00780809149D0004307B20ED
:1002B0009D14200008002100E0309E000030091449
:1002C0009D0004307B209D1420000800210095171C
:1002D00095129511151495141515F03099001730D5
:1002E000970024008C16230003308C0000308D0012
:1002F00020004F309C007D309B0021009114200095
:1003000021309800991333206400200011308D00B3
:1003100000308C002100A7308C00DF308D0064009D
:1003200020006430A0000130A3006430AC00640001
:060330000B178B170800FB
:020000040001F9
:08000000010000000D000100E9
:02000E00A42F1D
:02001000FF1FD0
:00000001FF
